:020000041000EA
:1000000000B5324B212058609868022188439860DF
:10001000D860186158612E4B002199600221596106
:100020000121F02299502B49196001219960352056
:1000300000F044F80222904214D00621196600F024
:1000400034F8196E01211966002018661A6600F04E
:100050002CF8196E196E196E052000F02FF8012189
:100060000842F9D1002199601B49196000215960AB
:100070001A491B48016001219960EB211966A021F2
:10008000196600F012F800219960164914480160C1
:100090000121996001BC002800D000471248134993
:1000A000086003C880F30888084703B5996A0420EC
:1000B0000142FBD001200142F8D103BD02B5186610
:1000C0001866FFF7F2FF186E186E02BD00000240BE
:1000D000000000180000070000035F00212200005C
:1000E000F4000018222000A00001001008ED00E03C
:1000F00000000000000000000000000074B24E7A12
:1001000000200420F7010010C3010010C5010010F9
:10011000C1010010C1010010C1010010C101001097
:10012000C1010010C1010010C101001005600010E4
:10013000C1010010C10100105B600010A56000103B
:10014000CD010010CD010010CD010010CD01001037
:10015000CD010010CD010010CD010010CD01001027
:10016000CD010010CD010010CD010010CD01001017
:10017000CD010010CD010010CD010010CD01001007
:10018000CD010010CD010010CD010010CD010010F7
:10019000CD010010CD010010CD010010CD010010E7
:1001A000CD010010CD010010CD010010CD010010D7
:1001B000CD010010CD010010CD010010CD010010C7
:1001C00000BE00BE00BE00BE00BE00BEEFF3058054
:1001D000103800BEF2EB88711083001034830010D9
:1001E0003402001090A31AE700201F49086006C8D7
:1001F00081F3088810471D48006800282FD10DA4FE
:100200000ECC002902D000F012F8F9E71849194A7B
:10021000002000E001C19142FCD1174988471749ED
:1002200088471749884700BEFDE701C901C29A42C5
:10023000FBD3704734830010C00000204C0B00201B
:10024000C08D00100000042000000420C08D0010AC
:10025000001004200010042000000000704709482E
:1002600003F064F80047000008ED00E0000000D053
:10027000500B0020F8100020B5200010E9030010FA
:10028000712000105756000006005250ABB3605367
:100290002082001006005250861C0302308200109B
:1002A000060052505422A29D448200100500525074
:1002B000DE65F468C08D0010F8B5C04610B5064C78
:1002C0002378002B07D1054B002B02D0044800E017
:1002D00000BF0123237010BD500C0020000000005F
:1002E000C0730010044B10B5002B03D00349044821
:1002F00000E000BF10BDC04600000000540C00200C
:10030000C073001070B5192000F0AAF8D0231B06A6
:10031000802292045A62D02424068025AD046561AF
:10032000064804F06BF9642004F03EFFA561044820
:1003300004F064F9642004F037FFECE7C0730010A8
:10034000CC73001010B504F075FA1D4B02221A6030
:100350001C4B1A688023DB015340E022D20113407A
:10036000194A1360164B04221A60164B1B68DB05F2
:10037000FBD5144B58680004000C03F0E7FE13494A
:1003800003F0DBFE03F004FF114A124B03F05DFAA9
:10039000114A124B03F06BFA02000B0000201049C7
:1003A00003F053FA03F03AFB03F0F2FE02000B00F5
:1003B0000C4804F023F9FA20800001F02FF8D1E76F
:1003C00000E0044000C0044000D004403333533AFE
:1003D000643BDF4F8D97E63F7FC2D9AD65325C3F0E
:1003E00000003B40D873001070B582B004F012F9E1
:1003F0008024640000260196012500950023220038
:100400000749084804F090FB01960095002322005C
:100410000549064804F088FB04F014FDFEE7C046D9
:10042000E873001005030010F4730010450300107A
:1004300010B58300084A944663441C684022624019
:10044000C02414408022520113431C60C000034B9F
:100450009C466044416010BD04C001400040014022
:1004600010B501238340D0221206936293610521C7
:10047000FFF7DEFF10BD0000034B1B680220184091
:10048000431E9841C0B2704700C00640EFF3108091
:1004900072B6034B1B68002BFBD0BFF35F8F704716
:1004A0002C0100D0BFF35F8F024B00221A6080F353
:1004B000108870472C0100D0F8B506000C0015001C
:1004C000FFF7E4FFE308F718F15C0722224001235D
:1004D00093400B4205D1DBB20B433B70FFF7E2FFC9
:1004E000F8BD2100280001F061FE0000002307E0B4
:1004F000054A9A189200BFF35F8F00211160013303
:100500001F2BF5D97047C04640000034054A1078CB
:10051000431CDBB21370172B02D9130010221A7080
:100520007047C04638020020074B9B68103080009F
:100530001950BFF35F8FBFF35F8F044B0021196029
:1005400082F310887047C04600ED00E0240100D01F
:1005500010B5091A081F0A4B9C466144094A91428A
:1005600008D8C30706D440104005400D064B184379
:1005700080B210BD054B064AA321064801F07CFD60
:10058000FC070000FE0F000000E0FFFF00740010F9
:10059000487600103074001010B5091A04394C0860
:1005A000090B08D14905490D064A11430180064B44
:1005B0002343438010BD054B054AAB21054801F09C
:1005C0005BFDC04600F0FFFF00F8FFFF6474001001
:1005D0001C7600103074001001238340034A106819
:1005E0001840431E9841C0B27047C04600E100E089
:1005F000002904D0034B1860034B18607047034B6D
:100600001860FBE780E200E000E100E080E100E04C
:1006100010B5012383401800FFF7EAFF10BD00006A
:10062000024B9B6810308000C058704700ED00E01E
:1006300070B504000D00EFF3108672B60C4B1B680A
:10064000002BFBD0BFF35F8F2000FFF7E9FF094BC2
:10065000984201D0A84205D1320029002000FFF7BE
:1006600063FF70BD044B054A8621054801F004FD77
:10067000240100D0CD0100107474001064760010C5
:1006800030740010F0B5CE46474680B583B0060002
:100690000D00EFF3108872B6564B1B68002BFBD091
:1006A000BFF35F8F544B9A6834001034A300D758BF
:1006B000524B9F4207D0AF4200D198E00197504B78
:1006C000FB1A2F2B09D9424639003000FFF72CFFC7
:1006D00003B0C0BCB946B046F0BD3000FFF77CFFA8
:1006E000814600213000FFF793FFBFF35F8FEFF3E8
:1006F0000581002901D08C4211D10123019C9C432A
:100700000022A368AB4212D00622A256002A0DDBBB
:1007100053009B189B002200394CE418F1E7362166
:10072000384B394AFF31394801F0A6FC2200AB4270
:1007300056D106256557002D38DB6B005B199A00F2
:100740002F4B9B189A68A260DA79E27106229A56BA
:10075000A2719B795BB2002B0FDA2D48A0806B0051
:100760005B199B00264AD3182A4A11789971157093
:1007700049463000FFF74CFFA5E7201D6B005B19D1
:100780009B001F4A9B181A1D9B88D90A1C2907D158
:100790005B055B15023359005118FFF7D9FEDDE701
:1007A0001D4B1E4AB121194801F066FC002912D1E7
:1007B000002A0ED0FF239371194B9380154A1378AA
:1007C000A371184B0E49641A644163431B0D1370E7
:1007D000CEE70A4FF2E7201D1349FFF7DDFEC7E71A
:1007E0006A21124B084AFF31084801F045FC034FCB
:1007F00069E7C046240100D000ED00E0CD01001003
:100800003C0200208875001034760010307400100F
:1008100001BD0000F5100020707500105476001026
:1008200001BDFFFFAAAA000076020020BC750010DF
:1008300070B5012101432E4BCB1A2F2B28D8EFF393
:100840000583002B2BD0EFF3108C72B6294A126867
:10085000002AFBD0BFF35F8F274A0400244D641B9E
:1008600064416243120D54B2244A92689B00D258EC
:100870008A421BD00022032A32D853009B189B00C7
:100880001B49CB189B795BB2A3421FD00132F2E720
:10089000C7211B4B1B4A49001B4801F0EDFB92216D
:1008A0001A4B184AFF31184801F0E6FB134A9268C8
:1008B0001749D150174B1A7882711C70BFF35F8FA4
:1008C0000C4B00221A608CF3108870BD0D00530091
:1008D000991889006918FF268E710F4A8A80E9E706
:1008E000D1210E4B074A4900074801F0C5FBC0461D
:1008F0003C020020240100D0AAAA000000ED00E084
:10090000C47500100076001030740010EC750010F3
:10091000CD010010F510002001BDFFFFF87500109B
:100920000022044B02E0044902C30132072AFAD92B
:100930007047C04600E400E080808080024B9C4607
:1009400061448900016070474000003410B5040024
:10095000FFF7DCFD01002000FFF7F0FFFF2323710C
:10096000BFF35F8F10BD10B50400FFF7CFFD01008E
:100970002000FFF7E3FFFF23237100236371BFF320
:100980005F8F10BD70B505000C00080000F0D6FEAA
:100990000949200000F016FEFFF7B8FD074B9C4602
:1009A0006044800068602C75D0231B061B786B7533
:1009B000A400034BE55070BDC90C0010400000348A
:1009C000C40E00200A4B1A68EFF3108172B6136848
:1009D000002BFCD0BFF35F8F054B1B68BFF35F8F0D
:1009E00000221A6081F3108840BF00200021704768
:1009F000D810002010B5002922D003681B7B994233
:100A00001ED8174B9C466144090183689C4661448B
:100A10000C684968002A19D003681B7B9A4215D8D4
:100A200083680F488446624412019A18106853681C
:100A3000020001208B4201D80ED00020C0B210BDB0
:100A4000084B094A3C21094801F016FB054B064AB0
:100A50003C21064801F010FBA242EFD8EDE7C0466A
:100A6000FFFFFF0FC47700101C7A0010947700106E
:100A700010B500291ED0037B99421BD84B005B1890
:100A8000033B0468A4466344002919D0002A1DD002
:100A9000914221D0002A25D0047BA24222D80468AA
:100AA00050008018033820188170197800291FD150
:100AB0001A7010BD104B114A6821114801F0DCFA80
:100AC000104B114A6F310E4801F0D6FA0F4B0E4A07
:100AD00070210B4801F0D0FA0D4B0B4A71210848E8
:100AE00001F0CAFA044B054A6821054801F0C4FA2E
:100AF00041701A70DDE7C046E8770010887A001070
:100B00000478001044780010647A001050780010C7
:100B10005C78001070B506000D001400002914D098
:100B2000002A14D0806873689847002806D02200F5
:100B300029003000FFF79CFF280007E02A00210071
:100B40003000FFF795FF200000E0100070BD0800A6
:100B5000FCE70000F0B583B00500009201930AABFA
:100B60001C780BAB1F78002C26D003685A7B94426C
:100B700007D10123002B19D1002C3BD1200003B059
:100B8000F0BD002C0CD01A7B944209D81A6863007F
:100B90001B19033BD3189B78002BEBD00123E9E70B
:100BA0003E4B3F4A68213F4801F066FA3E4B3F4AC0
:100BB00067213F4801F060FA03689C7B002CDBD082
:100BC00012D01A7B94420FD862001219033A1968A6
:100BD0008C46624451789973002900D1D97300235F
:100BE000937053701370C7E72C4B2D4A68212D4822
:100BF00001F042FA002C3AD02B681B7B9C4236D87D
:100C00002C4BE3181B01AA6894466344009A1A60AF
:100C1000019A5A60089A9A60099ADA602E68002C44
:100C20002BD030D0337B9C422DD863001B19033B63
:100C300032689446634400229A705A701A70717B2D
:100C400022003000FFF766FF7073844200D095E702
:100C5000287D009A019B00F0FDFC061E01D0002FAC
:100C600017D00C9B002B00D188E71E7086E7124B33
:100C7000124A3C210E4801F0FFF9114B114AA521FF
:100C8000084801F0F9F9054B054A6821054801F0CB
:100C9000F3F92868210000F015FFE2E7E87700107B
:100CA000887A00100478001074780010947A00108C
:100CB00094770010FFFFFF0FC47700101C7A00101C
:100CC00090770010787A0010F0B5DE4657464E4611
:100CD0004546E0B58BB00990002308938200B54BE0
:100CE000D658370052E0B44BB44A3F21B44801F023
:100CF000C3F9B44BB44A3C21B44801F0BDF9002912
:100D000001D1002869D10021404600F0D1FEA04267
:100D100019D12A686B6806920793AB689846EB680E
:100D20009A464346002B14D0002C18D03B681B7BFE
:100D30009C4214D8631EFA68D35C08931B021843C4
:100D40003861002015E0A24BA24A8E219F4801F095
:100D500093F9A14B9F4A92219C4801F08DF9994B40
:100D60009E4A4121994801F087F900239A46984606
:100D700000207B68BFF35F8F00221A6086F3108823
:100D80004346002B32D1002800D10CE100F0FAFBE1
:100D900002000B1EA7DB0020002106900791786857
:100DA000EFF3108672B601680029FCD0BFF35F8FA5
:100DB000396888464C7B002CD7D09AD0097B8C426E
:100DC00097D8874965182D01B9688C46654428680D
:100DD0006968801A9941002991DD2A686B68099831
:100DE00000F038FC00239A469846C2E7089B1B0295
:100DF0002343994651461800C04705000E007A6803
:100E0000EFF3108B72B6136859424B41D9B2002BE5
:100E1000F9D1BFF35F8F002E1EDB002E46DD3B694C
:100E2000002B47D04B456DD100F0ACFB02000B1EF0
:100E30006EDB52197341002B70DB002B72DB00213B
:100E40000491013103910294514601914146009170
:100E50003800FFF77FFE4CE03B69002BDDD04B45AF
:100E600014D1069A079B521BB341002B14DB002BB5
:100E700016DB002104910131039102945146019146
:100E8000414600913800FFF765FE32E0554B514A6C
:100E9000A1214E4801F0F0F801225242524BE6E700
:100EA000454B464A3F21464801F0E6F8002E01D165
:100EB000002DB4D13B68002C50D05A7B944237D1DE
:100EC000012100294AD1DA7B002A4DD19A7B002AE0
:100ED00003D1DA7B002A5AD19C73DC73002C5CD0DE
:100EE0003B681B7B9C4258D8FA68013C135D013378
:100EF000135500233B617A68BFF35F8F13608BF358
:100F0000108843E7374B334AA421304801F0B4F846
:100F1000294B2A4A3F212A4801F0AEF801225242C9
:100F2000314B8AE7244B254A3F21254801F0A4F89C
:100F3000002C0DD01A7B94420AD862001219033A91
:100F40001868844662449278002ABAD00121B8E732
:100F5000264B274A6821274801F08EF8264B274A5E
:100F6000F621244801F088F8002A0AD0197B8A4229
:100F700007D851008A18033A19688C4662445470A5
:100F8000A4E71A4B1A4A68211A4801F075F81C4B5D
:100F90001A4AFB21174801F06FF80A4B0F4A41210A
:100FA0000A4801F069F80BB0F0BCBB46B246A9464E
:100FB000A046F0BDC40E0020CC760010E8790010E9
:100FC000E8760010C47700101C7A001094770010A7
:100FD0009C780010007A0010B4780010407A00105D
:100FE000FFFFFF0FC0780010FFFFFF7FE8770010C2
:100FF000887A001004780010FC780010547A0010F1
:101000002079001010B50C4B5B68002B04D00A212E
:101010000A48FFF793FC10BD074C2300084A102133
:10102000206800F055FC032000F0A0FA0321200006
:10103000FFF7A8FCEBE7C04684020020D810002090
:10104000F509001010B5064B5B68002B01D0044871
:1010500010BD044B044A5E21044801F00DF8C0465F
:101060008402002034790010287A00109477001050
:10107000F0B5DE4657464E464546E0B58BB0804655
:1010800016001F00149B9A46159B994616AB1B78B9
:101090009B461F2302AA9446634400221A702BE049
:1010A000002809D042461268127B904204D8421EA2
:1010B0004146C9688A5C41E0404B414A4121414870
:1010C00000F0DAFF07984CE0361BAF41002F07DB3A
:1010D000002F11DA3C4B3D4A3F213D4800F0CCFF48
:1010E000012676423B4FF3E7374B384A3F213848D9
:1010F00000F0C2FF002F4FDB43465A68EFF3108425
:1011000072B6136859424B41D9B20791002BF8D1FE
:10111000BFF35F8F1F3302AA9446634404930023F6
:10112000039302934B4601935346009332003B00D6
:101130004046FFF70FFD031EB2D102004146496849
:10114000BFF35F8F00250D6084F31088002B29D03A
:101150001F2302A98C4663441B78002BB2D11202D4
:101160001043002B20D05B46002B1DD04946D047B2
:1011700004000D0003000B431DD00029A4DB00F088
:1011800001FA06000F1EAFDB36196F41002FB1DAEE
:10119000012676420F4FADE70B4B0C4A3F210C481E
:1011A00000F06AFF012040420BB0F0BCBB46B246E3
:1011B000A946A046F0BD0798F6E7C046C4770010E0
:1011C000407A001094770010CC760010E879001077
:1011D000E8760010FFFFFF7FF8B504004268EFF3E8
:1011E000108572B6136858424341D8B2002BF9D12A
:1011F000BFF35F8FCBB22268567BB3421BD1012075
:10120000002848D0206988422BD0090AC9B2002B97
:101210002ED02068007B83422AD8581EE668305CB6
:1012200088422BD000206368BFF35F8F00221A60D2
:1012300085F31088F8BD002B0DD0167BB3420AD879
:101240005E00F618033E1768BC466644B678002E6A
:10125000D6D00120D4E7134B134A6821134800F07D
:101260000BFF9521124B134A4900134800F004FF6D
:10127000124B134A4121104800F0FEFE19001000E5
:1012800000F020FC0028CED132210E4B094AFF315C
:10129000094800F0F1FE23698B42C4D10023236189
:1012A000C1E7C046E8770010887A00100478001083
:1012B00058790010D079001094770010C47700108E
:1012C000407A00107C790010F0B587B006000F005E
:1012D000EFF30583002B1FD106246442E517A41900
:1012E0007D418D4202D803D1844201D900240025DA
:1012F000002D14DB0494059500F044F902000B1E48
:1013000013DBA41A9D41002D17DC14D030003900E6
:1013100000F044F907B0F0BD234800F047FF234B2D
:10132000234A3F21234800F0A7FE204B204A3F21BB
:10133000204800F0A1FE002CE8D0FFF783FE002338
:10134000029301931C4B0093049A059BFFF790FEB8
:10135000002818DADAE7002300E00023002BD5D1BB
:10136000164B1A68EFF3108172B61368002BFCD08D
:10137000BFF35F8F114B1B68BFF35F8F00221A60B2
:1013800081F3108820BF0499059A0D4B5B6A9A423D
:10139000E3D80B48806A884203D29A42DBD001230B
:1013A000DCE70123DAE7C04680790010CC76001034
:1013B000E8790010E8760010C5090010D810002068
:1013C0000040054070B504000D0000F0DBF802009D
:1013D0000B1E0ADB200029008018594100290ADB76
:1013E00000290CDBFFF770FF70BD084B084A3F2156
:1013F000084800F041FE012040420749F0E7034B56
:10140000034A3F21034800F037FEC046CC76001067
:10141000E8790010E8760010FFFFFF7F10B5FA2290
:1014200092000023002102F04BFEFFF7CBFF10BD1E
:1014300070B584B005000C00EFF30583002B1ED1BE
:10144000FFF700FE002302930193224B00932A0032
:101450002300FFF70DFE061E23DD20BFFFF7F2FD80
:101460003100FFF7B9FE1C4B5B6A9C422DD81A4A2B
:10147000926AAA422CD29C4225D0012026E0164B2B
:101480005B6A994209D8144A926A824207D2994209
:1014900001D001201AE0002018E0002016E0012011
:1014A00014E00D4B5B6A9C4209D80B4A926AAA422F
:1014B00007D29C4201D0012008E0002006E0002075
:1014C00004E0012002E0002000E0002004B070BD34
:1014D0000120FBE7C50900100040054070B5EFF39F
:1014E00005801038EFF3108C72B61A4B1B68002B76
:1014F000FBD0BFF35F8F01221300834016494B637B
:1015000016490B60164909780C00C440224214D0D9
:10151000114A546A8200134D5259944206D38200F4
:10152000114C125999430E4B197007E00A4A031DDA
:101530009B0099589950002200E00022BFF35F8F72
:10154000044B002119608CF31088002A00D09047CA
:1015500070BDC046280100D0004005403C700540E9
:10156000F6100020DC100020340E002010B5010021
:10157000024A0348FEF7A0FF10BDC046AC7A001037
:10158000F4100020044B5B6A034A906A1900536A06
:101590009942F9D17047C04600400540084B5B6A4C
:1015A00001E0074B5B6A8B42FBD301E0044B5B6AB3
:1015B0008B4203D1024B9B6A8342F7D37047C046EC
:1015C0000040054070B504000D00EFF3108672B6C0
:1015D0001B4B1B68002BFBD0BFF35F8F002D1CD073
:1015E0002000FFF71DF8174B83420BD01900200095
:1015F000FFF71EF801212000FFF70AF80123A3409E
:10160000114A1360A400114BE550BFF35F8F0C4BE0
:1016100000221A6086F3108870BDA2000B4B0021D7
:10162000D1500122A2400A490B7893430B7005491F
:101630002000FFF727F800212000FEF7E9FFE4E78C
:10164000280100D0DD14001038600540340E002061
:10165000F6100020F0B5DE4600B584B00400150099
:1016600001921E000293FFF78DFF03958E4202D870
:101670004ED185424CD9EFF3108B72B6274B1B68C5
:10168000002BFBD0BFF35F8F254A17780125A540BB
:10169000EBB23B431370234B5D63221D9200019913
:1016A000D150A2002049029850501B6A2B4212D1FF
:1016B0001C4B1B6C2B4208D00020BFF35F8F174BD5
:1016C00000221A608BF3108823E0184B184AC521BA
:1016D000184800F0D1FCFFF755FF8E4214D802D114
:1016E000039B834210D80E4B1B78BB420ED00D4B90
:1016F0001D625D631F2004400123A3400E4A136056
:10170000074B1F701E38D8E70020D6E70120D4E72A
:10171000012004B080BCBB46F0BDC046280100D00B
:10172000F610002000400540DC100020D07A0010A8
:101730002C7B0010F47A001080E200E0EFF3108CB4
:1017400072B60B4B1B68002BFBD0BFF35F8F0123DE
:101750008340084A136208490A789A430A70BFF323
:101760005F8F034B00221A608CF310887047C046CD
:10177000280100D000400540F610002010B50029D7
:101780001ED0037B99421BD84B005B18033B0468B7
:10179000A4466344002919D0002A1DD0914221D0CB
:1017A000002A25D0047BA24222D804685000801869
:1017B000033820188170197800291FD11A7010BDC4
:1017C000104B114A6821114800F056FC104B114A89
:1017D0006F310E4800F050FC0F4B0E4A70210B4841
:1017E00000F04AFC0D4B0B4A7121084800F044FC04
:1017F000044B054A6821054800F03EFC41701A7010
:10180000DDE7C046E87700102C7C0010047800105B
:1018100044780010187C0010507800105C7800109C
:1018200070B506000D001400002914D0002A14D051
:10183000806873689847002806D02200290030008D
:10184000FFF79CFF280007E02A0021003000FFF787
:1018500095FF200000E0100070BD0800FCE70000CC
:1018600010B50023437301338373037BC3730123D8
:10187000027B9A4214D9002B0CD0027B934209D8E8
:101880005A00D218033A01688C4662440133DBB235
:101890005370EDE70B4B0C4A68210C4800F0ECFB51
:1018A000002A09D0924207D8016853009A18033AD7
:1018B0008A180023537010BD024B034A6821034865
:1018C00000F0DAFBE87700102C7C001004780010A0
:1018D00010B5017342608360FFF7C2FF10BD0000C6
:1018E00070B50400081E00D170BD002934D0237BE0
:1018F000994231D84B005B18033B226894466344FD
:101900005A78002AF0D02DD0237B9A422AD853004F
:101910009B18033B21688C4663445D780021597015
:10192000002825D0237B984222D843001B18033B74
:1019300021688C4663440021597001002000FFF7A4
:101940006FFF060029002000FFF7CAFF02003100E8
:101950002000FFF765FFC7E7084B094A68210948DF
:1019600000F08AFB054B064A6821064800F084FB1C
:10197000024B034A6821034800F07EFBE877001021
:101980002C7C00100478001070B505000C001600C7
:1019900000292FD034D0037B994231D84B005B18FB
:1019A000033B0268944663445A78002A2ED19A7801
:1019B000002A31D11978FFF793FF0300002E0AD0D7
:1019C000EA7B002A2ED1AA7B002A03D1EA7B002AD7
:1019D0003BD1AC73EC73002B3DD1002C4FD02B7B53
:1019E0009C424CD82B6861000C19033C1C19002345
:1019F000637070BD254B264A3821264800F03CFB19
:101A0000254B264A6821264800F036FB254B204A04
:101A10003A21204800F030FB234B1D4A3B211D4852
:101A200000F02AFB002A0AD0297B8A4207D85100FD
:101A30008A18033A29688C4662445470C3E7164BEF
:101A4000164A6821164800F017FB184B104A42212D
:101A5000104800F011FB002B0BD02A7B934208D8D2
:101A600043001B18033B2A689446634400229A7083
:101A7000B3E7094B094A6821094800F0FDFA064B13
:101A8000064A6821064800F0F7FAC046487B001075
:101A9000047C0010507B0010E87700102C7C0010B4
:101AA00004780010807B0010A87B001020790010C3
:101AB00070B504000A00457B2900FFF765FF6073DD
:101AC000280070BD70B50400002967D0437B8B42AD
:101AD0000ED0002911D0037B99420ED84B005B1821
:101AE000033B0268D0188378002B0CD1002056E00D
:101AF0000121FFF7DDFF012051E0294B294A682130
:101B0000294800F0B9FA002B20D0227B93421DD83F
:101B10005A00D318033B2268D2182568EB5C8B422D
:101B20001AD0002B1BD0227B934218D85A00D3180E
:101B3000033B2268D21853788B4216D0002BF0D189
:101B40001A4B1B4A6B211B4800F096FA144B154A9E
:101B50006821154800F090FA4378137007E0104BA5
:101B6000104A6821104800F087FA43785370002328
:101B70008370437001222000FFF706FF0200617BA3
:101B8000814205D02000FFF74BFE6073012006E084
:101B9000094B074A7121074800F06EFA002070BD1A
:101BA000E87700102C7C001004780010F875001005
:101BB000EC7B0010507B0010CC7B001070B5040053
:101BC0000D00062000F07EF9C000290001F002FCA3
:101BD000C60908D00E4B9E4217D87F23184001300B
:101BE0003500460800E001256562A6622C3480209D
:101BF0008001044300232360062000F063F9800085
:101C0000A901891901F0E6FB70BD0026014DEBE743
:101C1000FEFF0000FFFF0000002909D00A22064B4A
:101C20009C466044434258414000044BC2527047B6
:101C300080225200F3E7C0460080FCBFEC10002079
:101C400070B505000C00062000F03CF9002829D0F2
:101C5000164B9D4227D08022D203154B1A60154B9C
:101C60001A60154B9B6811009943FAD10021280096
:101C7000FFF7D2FF21002800FFF7A0FF2C002C3433
:101C8000E96A60224A406E211140802252012243BB
:101C900011600A4B2B6380239B01234310221A609F
:101CA0000323AB6470BD80221204D6E7008003409A
:101CB00000E0004000F0004000C0004001030000D0
:101CC000F8B5DE4657464E464546E0B505000F00DE
:101CD00092460A9A93424ED31A0E91461E020A9ACF
:101CE00000233000494601F0B3FB80466C006419C4
:101CF000A4002F4B9C4664446368834200D260601A
:101D00002B1FDBB29B46012B3BD9C0239B012343F6
:101D1000802212011A60AB00264A9958002905D08A
:101D2000506901F057FB01300138FDD153465A018B
:101D300023685A40E0231A4080235B0123431A6042
:101D40005A46012A28D980239B012343802212016D
:101D50001A6043466360424600233000494601F062
:101D600077FBAD00134B58510120F0BCBB46B24687
:101D7000A946A046F8BD104B104A2D21104800F08E
:101D80007BF9012FC1D1C0239B01234303221A6099
:101D9000A368DB07FCD5C9E72168794003220A4024
:101DA0001A60A2680123BB401342FAD0CBE7C046B9
:101DB000008000404C0E0020387C0010887C001011
:101DC0004C7C001030B583B00C2000F017F9FEF702
:101DD00053FB00280DD0002304E099002D4A2E4823
:101DE00088500133092BF8D92A4B2C4A5A6203B088
:101DF00030BD2B4B00229A6700F008F9294B0122D5
:101E00001A60274B5B6C012BFBD1274B03221A6016
:101E1000234B9B6B012BFBD1013300930433234AEB
:101E20000121234800F054F805230093214A0121A1
:101E3000214800F04DF8214B00930022022104209C
:101E4000FFF73EFF1E4D00952B00002201210520CB
:101E5000FFF736FF104C00942300002200210720DA
:101E6000FFF72EFF00942300002200210820FFF737
:101E700027FF0A4B00932300002200210920FFF7CF
:101E80001FFF00952B00002200210620FFF718FFFE
:101E9000ADE7C0464C0E0020006CDC021BB7000012
:101EA000008000403CB0004030B00040002F685936
:101EB00000800240008C864700C00240001BB70033
:101EC000405973078000014BC05870474C0E0020EA
:101ED000F0B5C64600B504000D00170098460C206A
:101EE00001F078FA0600394BFA18394B9A4241D87A
:101EF00043011B1A9901C91AC90009188901380040
:101F000001F068FA0200103A98235B009A4237D831
:101F10004346013B062B39D8069B013B062B35D89F
:101F20003F09B74238D343461E04069B1A031643A3
:101F30002368002B36DB274B9C4244D08022520181
:101F4000254B1A60254B1A60254B9B68110099435D
:101F5000FAD12560A060231DC02292011A432123DB
:101F600013602368002BFCDAE6600823136080BC52
:101F7000B846F0BD1B4B1C4A11211C4800F07CF8F0
:101F80001B4B194A1921194800F076F8194B164ACB
:101F90001C21164800F070F8174B134A23211348F0
:101FA00000F06AF822683F231340AB42C3D1A36814
:101FB0001B051B0D8342BED1E368EE22D202134003
:101FC000B342B8D1D3E780229201B9E780E84BD37E
:101FD00080F8A93200C0024000E0004000F000405C
:101FE00000C00040987C0010B07D0010F87C00100C
:101FF0002C7D0010487D0010947D001080239B00F4
:102000000343014AD362704700800540064BAA2271
:1020100012011A602F22DA60044B054A1A60024B43
:102020005B68002BFBDA7047004002400060024012
:1020300000B0FA0000BEFDE703000A4A1268002A59
:1020400008D0084A1068C318074A9A4206D3054ABE
:1020500013607047034A05491160F2E701204042CE
:10206000F7E7C046C00E002000000420F810002052
:1020700010B5FFF7DFFF000010B582B00C001900AB
:10208000002A0CD0084B002A0BD0019200932300A9
:102090000200064802F0B2FA0120FFF7CBFF044B22
:1020A000F1E7034AF1E7C046BC7D0010CC7D00108B
:1020B000E473001070B52B4B2B4A1A602B4B2C4A43
:1020C0001A602C4B9A682A4B9343FAD12A4C01E0B0
:1020D00008CC9847294B9C42FAD3FFF773FE234B59
:1020E000274A1A60234B9B68DB43DB01FAD1254B5F
:1020F00040229A675A671A67DA66234C09E0234B35
:10210000234A86212348FFF7B7FF2000FEF71EFC75
:102110000834214B9C4209D22368002BF5D0012BB7
:10212000EDD12000FEF71FFC0834F2E71B4CA1683C
:102130001B4DC022280002F009F9A560EFF30583CA
:10214000002B00D000BEFEF7D1F9FEF7E9FBFEF749
:1021500059FF144C01E008CC9847134B9C42FAD32A
:1021600070BDC04600E00040BFCDFBFE00F0004067
:10217000FE7F3C0000C00040380B0020480B0020D0
:10218000FFFFFF0100F00140300B0020FC7D00103C
:10219000687E00101C7E0010380B002000ED00E06F
:1021A00000000020480B00204C0B00200FB400B5AD
:1021B00083B0084802F0F2F9049B002B07D005A970
:1021C0000191180002F0FAF9034802F0E7F9012042
:1021D000FFF730FF547E0010647E0010704710B58A
:1021E000002802D00B684968984710BD0100002004
:1021F00007E083001B185B00501C08601078C018B3
:1022000030380A681378303BDBB2092BF1D97047BC
:10221000F0B5DE4657464E464546E0B583B0934698
:102220001F000C9B9A460D9C0E9B99460F9B9B078B
:1022300003D0B8460F00060022E00192A34688466C
:102240004E46B9460700B44207D2551C4B4641469C
:102250002020B84701342A00F5E73D004F465C4690
:10226000019B9B46B1464646B84637002E0007E024
:10227000013C551C5346185D43463900B0472A00BF
:10228000002CF5D135003E0047460F9B9B0707D435
:10229000100003B0F0BCBB46B246A946A046F0BD54
:1022A000B0464E46B9462F005D46531BB342EFD2AF
:1022B000541C4B4641462020B8472200F5E7F0B5B4
:1022C000CE46474680B585B0944698460C9D0D9CF9
:1022D0000EAB1B789946109A119B129EB7071CD41F
:1022E000002B0CD0F7070AD54F46002F02D10C3730
:1022F000374204D0013B02E030272F55013494428D
:1023000001D21F2CF8D9F70707D59C4205D21F2C04
:1023100003D830272F550134F5E7F70615D5770593
:1023200005D4002C03D0944224D09C4222D00F9A92
:10233000102A2BD00F9A102A30D00F9A022A35D0AB
:102340001F2C02D830222A5501341F2C05D84A46AA
:10235000002A31D02D222A5501340396029301948C
:10236000009543466246FFF753FF05B0C0BCB9462F
:10237000B046F0BD621E012C06D00F9F102F01D079
:102380001400D4E7023CD2E71400D0E7B206D1D45F
:102390001F2CCFD878222A550134D1E7B206CCD5EC
:1023A0001F2CCAD858222A550134C9E71F2CC7D878
:1023B00060322A550134C3E7720703D52B222A5510
:1023C0000134CAE73207C8D520222A550134C4E7B0
:1023D000F0B5DE4657464E464546E0B593B08146D9
:1023E0008A46089209931CAB10CB1B789B461E9D16
:1023F000219B9846002C03D1102342469A439046D5
:102400008023DB0046461E4042461A4212D0002C72
:1024100022D000260EE03033D9B2771C0AAB995592
:102420002900200000F0D6FFAC4216D31F2F14D88D
:102430003E0004002900200000F0CCFFCBB2092BA5
:10244000E9D94246920605D54121C918C9B20A39CF
:10245000C9B2E2E76121F8E7270043460693209BD3
:1024600005931F9B049303955B46029301970AAB68
:102470000093099B089A51464846FFF720FF13B086
:10248000F0BCBB46B246A946A046F0BDF0B5DE465C
:1024900057464E464546E0B595B0089009910A92D8
:1024A0000B931E9E1F9C20AB1B789B46229B99463C
:1024B000239D269B9A463300234303D11033524673
:1024C0009A4392468023DB0057461F4052461A42E9
:1024D00019D0330023432DD0002714E03033DAB273
:1024E0007B1C98460CABDA554A462B003000210085
:1024F00000F0AEFFA5421FD819D043461F2B1BD8B2
:10250000474606000C004A462B003000210000F030
:102510009FFFD3B2092BE1D95246920605D541223D
:10252000D218D2B20A3AD2B2DAE76122F8E7B1455C
:10253000E3D901E00023984653460693259B059373
:10254000249B04934B4603935B46029343460193BB
:102550000CAB00930B9B0A9A09990898FFF7AFFE02
:1025600015B0F0BCBB46B246A946A046F0BD00007F
:10257000F0B5DE4657464E464546E0B591B0834637
:102580008A460C9298461A9C08941B9D0995220035
:102590002B002000290001F0E6F9002800D0E5E03A
:1025A00001225242D74B2000290001F0D7F9002820
:1025B00000D0DBE001225242D34B2000290001F081
:1025C000B7F9002800D0D1E000220023089E300097
:1025D000099D290001F0ACF9002800D0DDE0089841
:1025E0000999069007918023DB001E9A1A400D92EC
:1025F0001E9A1A4201D106231C93069807990400DB
:102600000D000A000600024300D1D1E0080D40058C
:10261000400DBE4CA44660440A03120BBC4B13434E
:102620001F0001F0B3F9BB4ABB4B01F03EF9BB4AB6
:10263000BB4B01F013F904000D000022B94B300030
:10264000390001F002F9B84AB84B01F02EF9020046
:102650000B002000290001F001F901F0AFF98146DB
:1026600001F094F904000D00B14AB24B01F01DF9DC
:102670000022B14B01F0F2F801F0A0F90600AF4AD8
:10268000AF4B2000290001F010F904000D003000CC
:1026900001F07CF9AB4AAC4B01F007F902000B00EA
:1026A0002000290001F0D1F804000D0002000B0009
:1026B00001F0FBF80A900B91A44BF31800261F05BC
:1026C00022002B002000290001F0C8F80E900F9185
:1026D00022002B0000208021C90501F0B6F804007B
:1026E0000D0000229A4B0A980B9901F0C0F80022C5
:1026F000984B01F0B3F802000B000A980B9901F017
:10270000B6F80022944B01F0A9F802000B000A98D9
:102710000B9901F0ACF802000B002000290001F039
:102720009DF802000B000E980F9901F0A0F800220E
:10273000774B01F093F832003B0001F0B6F8060049
:102740000F0004000D00069A079B01F007F900280E
:1027500030D001235B429C46E14400227D4B300097
:10276000390001F084F804000D0023E01E9B04935F
:102770001D9B03931C9B0293089A099B0092019353
:1027800043460C9A5146584600F0FCF811B0F0BC94
:10279000BB46B246A946A046F0BD002300240693DE
:1027A0000794069680231B069C46654407951AE706
:1027B000002399464B466333C62B1ED804261E9B26
:1027C0001B0526D52B0023430FD0644A644B069883
:1027D000079901F0BBF8002879D00022614B0698D8
:1027E000079901F0A5F8002871D01C9B4B4506DD28
:1027F0004A46981A431E1C9303E00526DFE7002390
:102800001C938023DB001E9A1A431E92002600238D
:1028100099461D9B9E4264D29F1B02231E9A1A401A
:102820000A921E9A134202D0002E00D000274B4677
:10283000002B07D022002B000698079901F017F80B
:1028400006900791002200230898099901F070F87A
:10285000002848D1444B1E9A1340049303971C9BB5
:102860000293069B079C0093019443460C9A5146A1
:10287000584600F087F8002E00D187E71E9B9B0684
:102880003DD54525441C4346020051462800D84703
:102890004B46DA179B18534005220592013E0496D9
:1028A000002203920A3202924A46D00F019000930E
:1028B0004346220051465846FFF78AFD0A9B002BEB
:1028C00000D163E702005F460C9E1D9D54E01C9BF7
:1028D000002B9ED00D9B002B9BD01C9B013B1C937F
:1028E00097E7002799E7069C079D22002900802092
:1028F0000006844661440B0006920793AAE765250B
:10290000C0E7C046FFFFEF7FFFFFEFFF01FCFFFFC7
:102910000000F03FFB799F501344D33FB3C8608B56
:10292000288AC63F0000F83F61436F63A787D23F04
:1029300071A379094F930A400000E03F1655B5BBDB
:10294000B16B0240EF39FAFE422EE63FFF03000072
:1029500000002C4000002440000018402D431CEBD8
:10296000E2361A3F80842E41FFF7FFFF541C434696
:1029700051462020B8472200931BAB42F6D31000EB
:1029800004E7C046F0B5DE4657464E464546E0B53C
:1029900095B00690079193469946209F1E9A1F9BDB
:1029A0001000190000F0DFFF002831D1012252424F
:1029B000BF4B1E981F9900F0BBFF002837D10122A2
:1029C0005242BC4B1E981F9900F0C8FF00283DD111
:1029D0000022B94B1E981F9900F0C0FF002850D16B
:1029E0000022B64B1E981F9900F0A2FF002848D184
:1029F000002200231E981F9900F09AFF002850D152
:102A000000239846229B5B0500D4B6E0002458E0E2
:102A1000229B0393219B029303230193A84B0093D2
:102A20004B465A4607990698FFF7F2FB0EE1229BA8
:102A30000393219B029304230193A24B00934B46E3
:102A40005A4607990698FFF7E3FBFFE00423229A12
:102A50001A4022990B4210D09B4B002A0FD004221F
:102A60002299039121990291019200934B465A4673
:102A700007990698FFF7CCFBE8E0944BEDE70322BB
:102A8000EEE7229B0493219B039302971E9B1F9CBE
:102A9000009301944B465A4607990698FFF768FD44
:102AA000D4E01E9A1F9B0020002100F0CEFE1E9055
:102AB0001F9101239846A5E70CAB30221A55013F20
:102AC00001341F2C01D8092FF6D81E981F9900F049
:102AD00075FF050000F05AFF02000B001E981F99B9
:102AE00000F0B3FEFA007A4B9B181A685B680A92F2
:102AF0000B9300F0DAFE0890099100F083FF0600C6
:102B000000F040FF02000B000898099900F09DFEBC
:102B10000890099100226F4B00F020FF00282ED072
:102B20000136300000F02EFF02000B000A980B99CE
:102B300000F004FF002801D001350026002F2CD121
:102B4000280000F023FF02000B001E981F9900F0E0
:102B50007CFE06000F0000225E4B00F0E9FE00281C
:102B600046D100225B4B3000390000F0F7FE002810
:102B70003ED1EB073CD501353AE0062746E7002277
:102B8000544B0898099900F0D3FE0028D6D1002EA6
:102B900001D0F307D2D50136D0E7AA461F2C11D8B1
:102BA000013F0A21300000F015FC651C30310CABF0
:102BB00019550A21300000F00DFC092E0ED906002F
:102BC0002C00EBE755461F2C0CD87B1E002F09D09C
:102BD0000CAA302111551F000134F4E72B00554693
:102BE0001C00F0E71F2C03D80CAB2E221A55013421
:102BF0001F2C10D80A21280000F0C4FB661C3031BD
:102C00000CAB19550A21280000F0BCFB051E01D0B1
:102C10003400EDE734000323229A1340012B1CD02B
:102C20001F2C06D84346002B32D00CAB2D221A5550
:102C30000134229B0393219B029301940CAB0093DC
:102C40004B465A4607990698FFF7E2FA15B0F0BCD2
:102C5000BB46B246A946A046F0BD219B002B13D02F
:102C60004346002B02D10C3313420FD0219B013B72
:102C70002193190003E00CAB30221A5501348C4229
:102C8000CED21F2CF7D9CBE72199F8E72199F6E7A7
:102C9000229B5B0704D50CAB2B221A550134C8E7E5
:102CA000229B1B07C5D50CAB20221A550134C0E767
:102CB000FFFFEFFFFFFFEF7F65CDCD4165CDCDC1BC
:102CC000847E0010887E00107C7E0010787E0010CC
:102CD000708000100000E03FF0B5DE4657464E46DB
:102CE0004546E0B593B082468B4690461193002945
:102CF00000D1EBE200275546119B1878002800D13F
:102D0000E7E2252809D07C1C43463A005946A847EB
:102D1000119B013311932700EEE701331193002437
:102D2000119A11780B00203BD8B2102803D88300E9
:102D3000D048C3589F460B00303BDBB2092B2CD93F
:102D40002A292FD000230A93119B1A782E2A39D0D2
:102D500000239A46119A1378683BD9B2122976D883
:102D60008B00C549CB589F4601231C430132119269
:102D7000D6E702231C4301321192D1E704231C43FE
:102D800001321192CCE708231C4301321192C7E7AC
:102D900010231C4301321192C2E711A8FFF726FA53
:102DA0000A90D1E71C9B1A1D1C921868002804DBAE
:102DB0000A90119B01331193C6E702231C4343423F
:102DC0000A93F6E78022D20014435A1C11925A78D3
:102DD0001300303BDBB2092B04D92A2A07D0002389
:102DE0009A46B7E711A8FFF701FA8246B2E71C9BA3
:102DF0001A1D1C921868002804DB8246119B0133BF
:102E00001193A7E70020F8E780235B002343511CC0
:102E1000119152786C2A01D01C0018E0C0239B004D
:102E20001C430131119112E080232343511C119165
:102E30005278682A01D01C0009E0C0231C430131EC
:102E4000119104E080235B001C4301321192119B1D
:102E500018780300253BDAB2532A00D92CE29300FC
:102E6000864AD3589F4680239B001C43013211920F
:102E7000EDE780235B001C4301321192E7E77828DD
:102E800009D0582838D06F2838D0622838D010237D
:102E90009C430A2600E01026582833D0692803D026
:102EA000642801D00C229443630501D50122944388
:102EB00069282AD0642828D0A30500D59FE0E3051F
:102EC00000D5B8E0630600D4CAE01C9A111D1C911D
:102ED0001168FF220A4005940A9B0493534603930A
:102EE000029600230193009243463A005946280077
:102EF000FFF76EFA070027E01026CDE70826CBE79C
:102F00000226C9E720221443C8E7A30520D4E3051D
:102F100050D4630666D51C9A111D1C911168FF22BE
:102F20000A40D317D118594005940A9B049353467D
:102F300003930296D20F0192009143463A005946FC
:102F40002800FFF745FA0700119B01331193D3E6E0
:102F50001C9BDA1D07218A43110008311C9111685E
:102F600053689C46DB170C930D930C9A0D9B100035
:102F700048400E90624653400F930E980F990C9A5A
:102F80000D9B801A99410E900F9108940A9B07930C
:102F9000534606930496002305936346DA0F029284
:102FA0000090019143463A0059462800FFF76EFA17
:102FB0000700C9E71C9A111D1C911268D317D1187C
:102FC000594005940A9B0493534603930296D20FEB
:102FD0000192009143463A0059462800FFF7F8F95C
:102FE0000700B1E7230605D51C9A111D1C9100238B
:102FF000D25E96E71C9A111D1C91126891E71C9BEA
:10300000DA1D07218A43110008311C9108940A9B9C
:10301000079353460693049600230593029313687F
:1030200054680093019443463A0059462800FFF73C
:103030002DFA070088E71C9A111D1C9105940A9B24
:10304000049353460393029600230193136800935D
:1030500043463A0059462800FFF7BAF9070073E7DC
:1030600023060DD51C9A111D1C9112681204120C16
:1030700031E7C046907E0010D47E0010207F001003
:103080001C9A111D1C91126825E746281AD01C9B1A
:103090000733072293431A0008321C9204940A9AB9
:1030A0000392524602925C681B6800930194434667
:1030B0003A0059462800FFF765FC0700119B0133D1
:1030C000119319E620231C43E1E7672801D0472824
:1030D00002D180231B011C43452801D0472801D180
:1030E00020231C431C9B0733072293431A000832FA
:1030F0001C9204940A9A0392524602925C681B68DE
:103100000093019443463A0059462800FFF730FAED
:103110000700119B01331193EEE502231A002240B0
:10312000924623421FD001241C9B1A1D1C927A1C1C
:103130009146187843463A005946A8475346002B13
:1031400016D1119B013311934F46D5E5561C4346CA
:1031500059462020B847230032005C1C9D42F5D818
:103160003D001700E0E701233A002F000A9DF4E735
:103170004A46A9460A9D06E0571C43465946202068
:10318000C84734003A00661CA542F5D84D46914622
:10319000D7E71C9B1A1D1C921B6899465346002BAF
:1031A00000D1013B4E4601E0013613003278002A7F
:1031B00002D05A1E002BF7D14B46F21A10928023F0
:1031C000DB0026001E401C4203D0524501D9534665
:1031D000109302231A0022400B92234205D03A009A
:1031E00037004C46A946554620E03A00109B5F4602
:1031F000B3462E0006E0551C434639002020B04758
:1032000023002A005C1C0A999942F4D835005E46D6
:10321000BB46109437004C46A946554606E01D00B3
:103220000134561C43465946C847320020780028CE
:1032300004D0002FF4D06B1E002DF0D117004D46A6
:103240000B9B002B03D1119B0133119354E50A9F73
:10325000109B06E0561C434659462020A8472300F1
:1032600032005C1C9F42F5D81700ECE721231C4379
:103270001C9B1A1D1C921B68009305940823049341
:1032800053460393102302930023019343463A00CD
:1032900059462800FFF79CF80700119B0133119352
:1032A0002AE57C1C43463A0059462520A847119B35
:1032B0000133119327001FE57C1C43463A00594611
:1032C000A847119B01331193270015E50A4B9A4635
:1032D00010E5AA46474502D343465A1E00E03A008D
:1032E000434659460020D047380013B0F0BCBB46D7
:1032F000B246A946A046F0BDDD21001000B585B05C
:10330000029003910121009313004A4202A902484E
:10331000FFF7E2FC05B000BDDF21001001480421E9
:10332000014B1847B00200204D33001010B50100CA
:1033300018231B8814221088984710BD10B501006F
:1033400018231B8816221088984710BDF0B5C64672
:1033500000B507000E0000250123984600E0013566
:10336000B5420AD2AC003C192068FFF7DFFF2060AD
:103370000028F4D100239846F1E7404680BCB846C7
:10338000F0BD0000124A936F9B0815D29066D1667B
:10339000002905D0FFE7FFE7FFE7516F106F704787
:1033A00004B580210906C2175140002800D0C84347
:1033B00003F0F6FF002104BDF0B5146E556E576F93
:1033C000166FFFF7E3FF1466556657671667F0BD83
:1033D000000000D0114A936F9B0813D2106651660B
:1033E000002905D0FFE7FFE7FFE7516F106F704737
:1033F00004B5002801D00020C04303F0D1FF002114
:1034000004BDC046F0B5146E556E576F166FFFF7CA
:10341000E5FF1466556657671667F0BD000000D0DB
:1034200094464A4A926F9208624601D228E0C0460A
:10343000F0B5464E346E756E776F366F00F020F83B
:103440009446424A14665566576716676246F0BD51
:1034500094463E4A926F9208624601D254E0C046BA
:10346000F0B53A4E346E756E776F366F00F04CF8EB
:103470009446364A14665566576716676246F0BD2D
:10348000002B24DB11D000293EDA00B5C9434042AD
:1034900000D1013100F038F8C943404200D1013178
:1034A000DB43524200D1013300BD002AEBD100289A
:1034B00001D1002905D00020C90FC90701D1C0439F
:1034C000410800B503F064FF0022002300BD00B5F1
:1034D00000290ADBDB43524200D1013300F014F82B
:1034E000C943404200D1013100BDC943404200D12F
:1034F0000131DB43524200D1013300F005F8DB43D8
:10350000524200D1013300BD002923D1002B18D134
:10351000002A0CD0BC460D4F38667A660021002385
:10352000FFE7FFE7FFE77A6F386F674670470028CD
:1035300001D00748010000B503F02AFF0022002354
:1035400000BD02000B00002000217047000000D0E9
:10355000FFFFFFFF002B00D0BFE0130C28D1002A93
:10356000E7D080B4114F39667A66FFE7FFE730B4E1
:10357000040C7B6F396F1B0423433B667A66FFE7BD
:10358000FFE7FFE7C04684B27B6F3D6F1B04234318
:103590003B667A66FFE7FFE7C04600232C042D0C4C
:1035A0007A6F386F00196941B0BC7047000000D0D5
:1035B000F0B594460025140E01D112020835140FFF
:1035C00001D112010435940F01D192000235D40FBC
:1035D00001D152000135D40B0134254F7C66254CB6
:1035E0003C660E0C93B2FFE7FFE7FFE73C6F6643D4
:1035F000360C7703BE467343DF0B5B04C01AB94138
:10360000130C7343DB18C91ACE086643360CB64454
:1036100093B273431F0F1B01C01AB941130C7343BC
:103620001F0B1B05C01AB941860D8F023E4366432E
:10363000360C092D24DB520A7243801A7703460A9E
:103640006643360C16235B1BDE40DF40BF19644621
:103650006643821B7046043506330100D940A840FA
:10366000C01900D30131A24206D20023F0BD0000F0
:10367000000000D0FFFFFFFF121B0130F3D3F1E782
:1036800009277F1BFE406446A2B27243801A00D213
:103690000139220C7243130C1204821A99410B0057
:1036A0007046043513370100F940A840801900D353
:1036B0000131002B02D1A2420AD2F0BD013000D369
:1036C0000131121BFAD2013BF8D1A24200D2F0BD67
:1036D000013000D30131121BF7E7F0B51C0C00D00C
:1036E00080E00CB400251C0A04D11B02160E3343E3
:1036F000120208351C0B04D11B01160F33431201B3
:1037000004359C0B04D19B00960F33439200023585
:10371000DC0B02D192185B4101351C009718644103
:103720000134464F7C66464C3C660E0CFFE7FFE7D3
:10373000FFE7C0463C6F6643360C7703BE4697B240
:103740007743C01B00D20139C01B00D201399FB2A0
:103750007743C91BC91B170C77437E04FF0B801BE3
:10376000B941CE086643360C0C2D33DBB644120B40
:103770001F053A431B0B97B27743C01B00D2013998
:103780009FB27743C91B170C77433E043F0C801B45
:10379000B941860D8F023E43664329277F1BFE40B9
:1037A0000C3D7746AF40BF1930BCA2B2ABB27243FA
:1037B0007343801A9941220C7243130C1204801A2D
:1037C000994102000B000137001BA941F9D2781E74
:1037D0000021F0BD0C277F1BFE4077467F0BAF40DA
:1037E000FF19E0E700245D1C07D0144F7D663966A1
:1037F000FFE7FFE7FFE7FFE73C6F95B29EB2654347
:103800006643401BB141150C1E0C654366433604EC
:103810002F0C3E432D04401BB141994204D20200BB
:103820000B0020000021F0BD01D19042F7D3801A97
:10383000994101349942F2D3F6E70000000000D02C
:10384000FFFFFFFF48404140484018B41B4B5B68F6
:10385000FC46019308BD04DF373B001018B4174B3A
:103860001B68FC46019308BD00DF413B00109446F5
:10387000134A926F920809D2624618B40F4BDB6864
:10388000FC46019308BD0CDFF93D00100C4AF0B571
:10389000146E556E576F166F6246FFF7EEFF084ABB
:1038A0001466556657671667F0BD18B4034B9B68DE
:1038B000FC46019308BD08DF9D3C0010D40E00209B
:1038C000000000D0FFB550404240504059404B40AE
:1038D000594000E0FFB5154F4C00640D03D0BC42C9
:1038E00004D10C0314D80020090D09055C00640DF7
:1038F00003D0BC4204D11C030AD800221B0D1B05B7
:1039000001264B4009D44B4003D58B4200D1824263
:10391000FFBD9942FCD19042FFBD0B43DB1803432E
:103920001343F5D0C9434918FFBD0000FF0700004D
:1039300000B5FFF7CFFF804100BDC04600B5FFF7DF
:10394000C9FF01D9002000BD012000BD00B5FFF76F
:10395000B9FF01D9002000BD012000BD00B5FFF76F
:10396000B1FF804100BD012040054A00121804D873
:103970005A00121801D8002070470120704700201B
:10398000704700000021002805D17047C11748404A
:10399000401AFAD0C90713B5064B1B6898470CBCF0
:1039A000441CA2401005120B0349091B09051943C9
:1039B000114310BDD40F00201F04000010B54C00AF
:1039C000620D8023D218DB00D21A5B057E2A10DD3F
:1039D0009E3A13DACC170903490819435242D140E1
:1039E000640001341532202A05DAD04008436043D0
:1039F00010BD002010BD0846604310BDC80FC018A0
:103A0000013810BD18B4044B5B6AFC46019308BD35
:103A100024DFA93F00100000D40E002018B4044B8E
:103A2000DB6FFC46019308BD7CDF294000100000DD
:103A3000D40E002070B513231C78012C14D0012C57
:103A400014DC022C02DC1F4A1F4B9A641F48FFF74C
:103A50006DFC1F4B186070BD99001A481A4A8850B7
:103A600001331F2BF8D9EAE70023FAE71948FFF7DB
:103A700065FC05001848FFF761FC023803789B00DD
:103A80007F2B19DD802229000F4800F05FFC022CFB
:103A9000D7D1124B1A88B5231B029A4209D1104B79
:103AA0001A88104B9A4204D10F4B1A880F4B9A4236
:103AB000C7D00020FEF77AFB0D4B0E4A32210E488C
:103AC000FEF7DAFAFD3A0010D40E00204C33000065
:103AD000D40F002053440000534600005438000027
:103AE000D8380000494600009C38000059460000C4
:103AF000C0800010608100102081001007B5604672
:103B0000002800D100BE01880A0A0230DF2AFAD15B
:103B1000C9B2820804D3028840880004104300E040
:103B20000068024A5050039007BD0000D40E0020E8
:103B30000FB403BC0CBCF0B50124E407634000E003
:103B4000F0B50C0DCF0F661E3605891B640503D337
:103B5000C943404200D30131640D03D0661CF60A0C
:103B600007D0E41B00207F00791C89078912803C64
:103B700024031D0DDF0F6E1E36059B1B6D0503D341
:103B8000DB43524200D301336D0D03D06E1CF60AA5
:103B900007D0ED1B00227F007B1C9B079B12803D02
:103BA0002D032F1B661B58D4A446202E46DA20373F
:103BB0001400BC401D00BD40F24033412A43801830
:103BC0005941CB0F05D0C943C04300226442504144
:103BD000514162464D0D28D10D0D07D100281FD04F
:103BE000241940414941013A0D0DF9D0640006D332
:103BF000013000D30131002C01D140084000013ACE
:103C00000BD4941CE40A04D112051144DB071944B7
:103C1000F0BDD907204B194300E0D9070020F0BDC3
:103C20000029DDD1002CDBD1F0BD0132C6074008F0
:103C3000CD0728434908002EE1D0D9E73C2E29DAE8
:103C4000203E40371400BC4000D00124F240144311
:103C50001A00BB401C43D317ACE7AC46202F08DA50
:103C600020360400B4400D00B540F84039412843E7
:103C7000A5E73C2F0CDA203F40360400B44000D0CA
:103C80000124F84004430800B1400C43C117EAE79F
:103C900010001900002494E70000F07FF0B50C0D2F
:103CA000661E3605891BE60A6405640D02D0651C94
:103CB000ED0A04D0002001210905803C2403A4461C
:103CC0001C0D671E3F05DB1BE70A6405640D02D06F
:103CD000651CED0A04D0002201231B05803C24034F
:103CE0007740644497B484B296B27443070C7E4321
:103CF000150C6F4380B26843361802D301200004CC
:103D00003F183004350C00197D41844688B29AB2C0
:103D100050430C0C62431F0C7C438EB27E439219BD
:103D200002D301263604A4191604170C361867416D
:103D300001BC81B29AB25143040C62431B0C5C4338
:103D400080B25843121802D3012000042418100432
:103D5000130C401863412D185E410020474106BCFA
:103D600088B293B258430C0C6343120C544389B28B
:103D700051435B1802D301210904641819041A0C79
:103D8000091862416D1856410020474118BCF902DC
:103D9000720D1143F0026A0D1043ED020A0D03D1BA
:103DA0006D1940414941013B124E9B1B7600B342C5
:103DB0000ED26D0007D301300026714166463543AF
:103DC00001D1400840001B05C918E4072144F0BD9B
:103DD0000BDA013306D1013004D101314F0D01D08E
:103DE0004908F2E7E1070020F0BD01363105002067
:103DF000EBE70000FF030000F0B51C0D671E3F0558
:103E0000DB1BE70A6405640D02D0661CF60A04D0C9
:103E1000002201231B05803C2403D0252D0600260B
:103E2000F6432E661E096E66CE0FF619B44649009B
:103E30004F0D02D07E1CF60A03D000200021403F27
:103E40003F033E1BB600B444013F7F05C91B490830
:103E50002E6F013676089C02950D25437543ED13B0
:103E60007543AD1301356D10F603761B0CB4CC020F
:103E7000450D2C43A2B2B3B25A43270C7B43350CF9
:103E80006F43A4B26C431B1902D3012424043F19CD
:103E90001C041D0CA4187D4124196D41009A91B297
:103EA000ACB26143170C7C432B0C5F4392B25A4374
:103EB000A41802D301221204BF182204230C5218A2
:103EC0007B41019C6C431B19520ED9010A434401EA
:103ED000A01A81B2B2B2514303145A43360C734351
:103EE00087B27743D617D21900277E4136049B1933
:103EF0001704160C7F185E417316ED18F3010026A7
:103F000080337541A90F06D16400690AE8055B0A90
:103F1000184309D22FE00422944480337541A90A42
:103F2000A8059B0A184326D3404149412404009A1E
:103F3000019B0D005543641B4343E41A95B286B2BE
:103F40007543170C7E43030C5F4392B25A43B61875
:103F500002D301221204BF183204330C52197B41E0
:103F600052429C41002C02D40022013051414008B1
:103F7000CA071043490802B06246D7079210084B9F
:103F8000D218084B9A4203D212058918C919F0BDFC
:103F90000020002A01DC3900F0BD01331905F5E7E6
:103FA000FD030000FE070000002200B5203200F0F3
:103FB00004F8080000BD000000220B150AD410B55B
:103FC000944600F05FF81414013400DA0021CB1796
:103FD000144C20470020002170476244343A0CD42E
:103FE0000C2A07DA04009140904052422032D4401B
:103FF000214310BDD843D94310BD203207D40C460D
:104000009440524220321141D040204310BD08005C
:10401000C917203203D452422032104110BD18007B
:10402000190010BDDB3F00104A00520D144BD21A8C
:1040300013DDFF2A1EDAD205CB0FDB071A43C300BC
:10404000400F0903490A084310435B0001D301D024
:10405000013070474308FBD2704702D0C80FC00739
:1040600070470A0312130132F8D1420F072AF5D123
:10407000012200E0FF22C80F00028018C00570472F
:10408000800300000A0DCC0F531E1B05C91A5205F0
:1040900003D3C943404200D30131520D03D0531C16
:1040A000DB0A07D0121B00206400611C89078912FB
:1040B000803A1203014BD21A70470000FF03000040
:1040C00051434343C9188C46110C83B24B4310B47F
:1040D000040C614392B280B2504362431C041B0C37
:1040E000001910BC59411304120CC018514161440D
:1040F0007047000048404140484000239C46114B17
:104100005B68184700239C460E4B1B6818470E4AF5
:10411000936F9B0804D200239C460A4BDB68184728
:10412000F0B5146E556E576F166FFFF7F4FF064A21
:104130001466556657671667F0BD00239C46014B11
:104140009B681847D80F0020000000D0C10FC90796
:1041500000D54042002817D0F44603B40B4B1B682F
:10416000984706BC81409E384042803107D20B06FA
:1041700007D04900490AC005104308436047013091
:10418000F8E7490A8902F5E770470000D40F0020DC
:10419000034BDB6FFC4618477CDFD5420010000064
:1041A000D80F002070B513231D782A48FFF7C6F8F2
:1041B0000400012D11D0012D09DDA31E1B789B00E9
:1041C0007F2B40DD80222100234800F0BFF82348E8
:1041D000FFF7ACF8224B186070BD542201001E4856
:1041E00000F0B4F81F4B1A881F4B9A421CD1A7232A
:1041F0009B011A881D4B9A4216D11D4B1A881D4BE4
:104200009A4211D11C4B1A8894239B019A420BD1DC
:104210001A4B1A881A4B9A4206D11A4B1A681A4B33
:104220009A4201D1152307E01848FDF7BFFF990016
:104230001748094A885001331F2BF8D9144A064BF6
:104240001A62DA61B7E7134B134A42211348FDF7AC
:1042500013FFC04653460000D80F00204C33000027
:10426000D40F0020EE290000C40F0000C20D000092
:10427000962B0000C0B50000182B0000CC2A0000CF
:1042800010B50000FC2C000051ED8764E4730010B1
:10429000A142001074810010E4810010A881001078
:1042A00007B56046002800D100BE01880A0A023026
:1042B000DF2AFAD1C9B2820804D3028840880004F8
:1042C000104300E00068024A5050039007BD000010
:1042D000D80F0020C30FDB0741000A0E07D0FF2ACA
:1042E00008D00909054A8918194340077047190081
:1042F000002070470249C918FAE7000000000038A2
:104300000000F07F10B5040002F0DCFB002804D0B0
:104310000419034B9C4200D810BD0248FDF746FF2C
:1043200000000420F881001010B502F0D5FB10BD8C
:1043300001480421014B1847C00200204D330010F2
:10434000014B1B6818470000C0020020014B5B684E
:1043500018470000C002002010B50300080011003B
:104360001B68984710BD0000F8B507000D00160047
:10437000437D002B02D0002400200CE003681100D4
:10438000280098472DE03B7D10E0022115483B684E
:104390009847601C0134B44214DA002CF3DD2B1969
:1043A000013B1B780D3B5A425341DBB22A5D0A2A7E
:1043B000F0D1002BEED1A042E7DA211A28183B6891
:1043C0009847E2E7B04203DA311A28183B68984769
:1043D000002E06DDAD19013D2B780D3B5A425341AD
:1043E0003B75F8BD8C82001070B505000368002B8A
:1043F00016D00C4B1C6805E0290004C92000FFF70B
:10440000B3FF2469002C09D02368002BF9D0064B98
:104410001B68002BF0D0A342F3D1EDE700232B6003
:1044200070BDC046B40E0020BC0E002070B5050063
:104430000C000B68802B05D021684B1C236064188E
:10444000257170BD0800FFF7CFFFF5E710B5FDF748
:1044500099F802000B1E0BDB0D48002112184B418E
:10446000002B0BDB002B0DDB0A4802F0A1FF10BD77
:10447000094B0A4A3F210A48FDF7FEFD012252423C
:10448000084BEFE7044B054A3F210548FDF7F4FDD3
:1044900040420F00300B0020CC76001074820010D8
:1044A000E8760010FFFFFF7F10B5024802F068FFBA
:1044B00010BDC046300B0020F0B5CE46474680B553
:1044C00083B006000D0090461C00FFF7BFFF814639
:1044D0006B1C05D0002C08D0194F1A4B1C6807E044
:1044E000300002F0E7FD0500F4E7174FF5E7246917
:1044F000002C17D02368002BF9D0144B1B68002B1D
:1045000001D0A342F3D12A0031002000B84743462E
:10451000002BECD06B46D91D0A230B700122200022
:10452000B847E4E74B46002B07D16B1E9D41E8B22C
:1045300003B0C0BCB946B046F0BDFFF7B5FFF4E725
:1045400059430010B40E002069430010BC0E002037
:10455000094A01E010331A001368002B08D0834287
:10456000F8D1002907D1036913600023036102E039
:10457000002900D010607047B40E002010B5064B23
:104580001C6801E098472469002C03D06368002B65
:10459000F8D1F8E710BDC046B40E002070B5050094
:1045A00002F088FD04000023012201002800FFF72B
:1045B00083FFFFF7E3FF200070BD000070B5A2B0DD
:1045C00004000E00FFF742FF0500002301933300B3
:1045D000220001A90848FEF791FE040001A8FFF798
:1045E00003FFFFF7CBFF002D02D1200022B070BDEA
:1045F000FFF75AFFF9E7C0462D4400100FB400B58D
:1046000083B004A901C90191FFF7D8FF03B008BC2A
:1046100004B0184710B500F0F9F8012010BD0000F3
:10462000F0B583B005000E0000240FE06B46D91DE5
:104630000D230B700020002816D193699B06FCD433
:104640000B78136001300131F5E70134B44219DA17
:104650000D4B1A682F5D0D4BD31859424B415B002F
:104660000B495B5EBB42E1D06B46D91D0F70002049
:104670000028EAD193699B06FCD40B7813600130C3
:104680000131F5E703B0F0BDF01000200080FCBF61
:10469000EC100020F0B583B006000F00002504E008
:1046A0006B4607331B782B702500BD4215DA174B7C
:1046B0001A6893691024210019401C420DD16C1C0A
:1046C00075196B46D81D0029EAD19369DB06FCD425
:1046D0001368037001310130F5E70D4B1B68002BA7
:1046E0000CD00A4B1A685023936311003431536B7A
:1046F00038221A4080235B010B431A60002D02D040
:10470000280003B0F0BD033DFAE7C046F0100020DA
:10471000440E002010B5064B1B68002B06D0054A3E
:10472000126800219163044A1068984710BDC04682
:10473000440E0020F0100020480E002070B5040048
:104740000E001C4B1B681C4A981842425041143002
:104750000500002C03D0194A1268002A06D0002C4C
:1047600019D0164B1C60164B1E6070BD1549FBF727
:104770005FFF01212800FBF74BFF0E4B1A68502307
:10478000936311003431536B38221A4080235B014C
:104790000B431A60E5E7094A1268002AE1D00022BB
:1047A0009A6300212800FBF733FF06492800FBF736
:1047B00069FFD6E7F01000200080FCBF440E002007
:1047C000480E00201547001070B50D001C000D4B61
:1047D0001860002A0BDA002C0EDA0A4B1868290040
:1047E000FDF72EFA01210848FFF7B2FE70BD022145
:1047F0001000FBF71DFEEEE702212000FBF718FE7C
:10480000EBE7C046F0100020D002002010B5064BA8
:104810001B78064B1B78E121012300224902044842
:10482000FFF7D2FF10BDC0462C830010308300106C
:10483000004003400123084A1360084A1360084BF4
:104840009A6801239343FAD1064B01221A60054B63
:104850001B68DB05FBD5704700E0004000F000401E
:1048600000C0004000C00440084B42699A4201D099
:1048700000207047826A14339A4203D0002A03D082
:104880000020F6E70020F4E70120F2E76C0C00209E
:10489000074B9B6A1B68002B04D1054B0122524237
:1048A000DA627047024B9A6AD2681268DA62F8E7F5
:1048B0006C0C002010B50400006B01F063FB2000BD
:1048C00001F060FB10BDF0B5DE4657464E46C0B560
:1048D00082469B46089E0A9F1C4B9C46624492005F
:1048E0003B6B9C46624407239A43914600290ED0B5
:1048F00000240F2C08D80B5D3D1934352B700B5D4F
:10490000002B01D00134F4E743230022FA54042E93
:1049100000D90426FE62381D01F013FC380018305F
:1049200001F00FFC3F6105239E1BBE617F625A466A
:104930005146484601F056FB3860099B002B00D0D9
:104940001F60E0BCBB46B246A946F0BDFFFFFF3F7B
:10495000F8B5002408E01248A3001B199A00303073
:10496000801801F0E3FB0134042CF4D90D4C27002E
:104970001437380001F0DAFB26002836300001F049
:10498000D5FB074D2800143001F0D0FB20003C304F
:1049900001F0CCFB280001F0C9FBAF622665F8BD31
:1049A0006C0C0020EC0C002070B5040001F038FB0A
:1049B000274B5A6D01325A659B6D002B0CD0244B4E
:1049C000DB6D002B0DD1224B9B6DDB6AE26A9342BB
:1049D00007D81F4B9C6504E01D4B9C655B6D012B4C
:1049E0002FD01B4A136E01331366E36A526E934253
:1049F00001D9174A536617499A00D21892008A18AB
:104A0000536BA3609868E060221D42609A60E06A80
:104A10000A00303283001D18AD00521962614A1934
:104A2000126B01324B191A6301F006FB084BDB6D68
:104A3000002B05D0064B9B6DDA6AE36A9A4203D3DA
:104A400070BDFFF785FFCCE701F0DEFAF8E7C0465E
:104A5000EC0C00206C0C002070B512E001F0E0FAC4
:104A60000A4CA36CDD68281D01F090FB636D013BCF
:104A70006365A36E013BA36601F0DEFA2800FFF731
:104A800019FF024B9B6E002BE8D170BDEC0C00208F
:104A900010B5FFF7E1FF034B1B6B012BF9D901F0B8
:104AA000B3FAF6E76C0C002070B504000D001C4B47
:104AB000DE6E986D043001F069FB631C0CD0341974
:104AC000174B9B6D5C60A6421CD9154B186D996DF8
:104AD000043101F044FB70BD002DF0D0114A516843
:104AE0000F4B986D8160986D8C68C460986D043030
:104AF0006060986D043088609B6D5A611368013363
:104B00001360E8E7074DA86A054B996D043101F081
:104B100026FBEB6AA342DED9024BDC62DBE7C04630
:104B2000EC0C00206C0C0020F0B587B004900591CF
:104B300016001F00900001F019FA041E21D0682011
:104B400001F014FA051E18D068220021FFF7F8FBC7
:104B50002C63002D19D00023039302950D9B019324
:104B60000C9B00933B00320005990498FFF7ABFEC5
:104B70002800FFF719FF012005E0200001F002FAEC
:104B8000E7E70120404207B0F0BD01204042FAE7CC
:104B900070B5040001F044FA002C29D0251D28002E
:104BA00001F0F4FAA36A002B03D02000183001F0C2
:104BB000EDFA174B1A6E01321A669B6DA3421AD09A
:104BC000134A536D013B5365FFF762FE01F034FA5F
:104BD0000F4B9B6DA34202D02000FFF76BFE0C4BE6
:104BE000DB6D002B03D00A4B9B6DA3420DD070BD33
:104BF000074B9C6DD2E7064E30003C30290001F097
:104C0000A3FAB36E0133B366E0E701F0FDF9EEE716
:104C1000EC0C002010B5040001F002FA002C04D0C6
:104C2000E46A01F009FA200010BD014B9C6DF7E722
:104C3000EC0C002010B5040001F008FA002C04D0A0
:104C4000E46A01F007FA200010BD014B9C6DF7E704
:104C5000EC0C002070B504000D00042900D90425D7
:104C600001F0DEF9002C0ED0E36A9D4226D00DD96A
:104C70002A4A926DA24224D0284A926DD26AAA4250
:104C800021D9002607E0254B9C6DEDE7234A926D64
:104C9000A2421AD00026E562A269002A02DB0521A1
:104CA0004D1BA5611E4A9900C918890013003033B5
:104CB0005B1862699A420AD0002E2CD101F0BCF92F
:104CC00070BD0026E7E70126E5E70126E3E7251D9D
:104CD000280001F05BFAE36A104A526E934201D950
:104CE0000E4A53660E499A00D21892008A18536BE6
:104CF000A3609A68E26055609D60E06A0A00303205
:104D000083001D18AD00521962614A19126B0132FD
:104D10004B191A63D0E701F077F9CFE7EC0C0020CC
:104D20006C0C002070B504001D4B9B6D83420AD0B3
:104D3000002808D001F074F92000FFF795FD002845
:104D400002D101F079F970BD251D280001F01EFA8D
:104D5000E36A134A526E934201D9114A53661149CC
:104D60009A00D21892008A18536BA3609A68E26086
:104D700055609D60E06A0A00303283001D18AD0066
:104D8000521962614A19126B01324B191A63E26AB5
:104D9000034B9B6DDB6A9A42D3D301F035F9D0E720
:104DA000EC0C00206C0C0020F8B5040001F04EF96A
:104DB00006002000FFF758FD051E30D01F4B1B6F6B
:104DC000002B33D11D4B9B6DDB6AE26A9A422BD3D9
:104DD0001A4B01225A670125271D380001F0D6F928
:104DE000E36A164A526E934201D9144A5366144933
:104DF0009A00D21892008A18536BA3609A68E260F6
:104E000057609F60E06A0A00303283001F18BF00BD
:104E1000D2196261CA19126B0132CB191A633000C0
:104E200001F018F92800F8BD0025D5E72100183158
:104E30000348143001F088F90025F0E7EC0C00205D
:104E40006C0C002000B583B0104B78330193002325
:104E5000009380220E490F48FFF766FE012805D017
:104E6000012806D00C4B1B6803B000BD00F0C5FF45
:104E7000F6E772B6094B01225242DA62034B023264
:104E8000DA650022DA6601F033F9EBE7EC0C00207A
:104E9000D0820010914A0010E80200206C0C002023
:104EA00010B572B6024B0022DA6501F0ACF810BD05
:104EB000EC0C0020024A136F013313677047C046A1
:104EC000EC0C0020014BD86E7047C046EC0C002063
:104ED000014BD86E7047C046EC0C0020014B586D5A
:104EE0007047C046EC0C0020002801D034307047D9
:104EF000014B986DFAE7C046EC0C0020F8B5474B23
:104F00001B6F002B00D082E0444BDE6E0136DE6664
:104F1000002E0AD0424BDB6AB34211D900203F4B2E
:104F20005B6F002B78D0012076E03D4A916A186DC6
:104F300090621965DA6F0132DA67FFF7A9FCE9E7D9
:104F4000002039E0364B01225242DA62E7E7344B67
:104F5000DA62E4E7D968516044E00021996211689F
:104F600001391160D96A2D4A526E914201D92B4AFA
:104F700051662B4A8C006418A1005118496B996046
:104F80008C68DC6065608D60DC6A15003035A100DE
:104F90000F19BC46BF00ED195D616746BD0055198C
:104FA0002D6B0135BC0012191563DA6A1B4B9B6D22
:104FB000DB6A9A4200D30120194B9B6A1B68002BC5
:104FC000C0D0174B9B6ADB68DB685A689642BED339
:104FD0005A699C68D968A1609C684C601D1D516825
:104FE000A942B7D0002159611168013911609A6A4C
:104FF000002AB7D0DC69196AA160DC694C6019002D
:10500000183154688C42A8D1196A5160A5E7054A45
:105010001368013313600020F8BDC046EC0C00207B
:105020006C0C00206C0D002070B500F0F9FF434BB4
:105030001A6F013A1A671B6F002B7AD13F4B5B6DD9
:10504000002B07D1002475E0196A516015E0D9687A
:10505000516021E000233A4A5269002A4AD0384B75
:105060001B6ADB689A6AD869196A8160D8694860E6
:105070001900183150688842E6D000219962116801
:10508000013911605A699868D968816098684860E8
:105090001C1D5168A142DAD0002159611168013903
:1050A0001160DA6A2549496E8A4201D923494A6664
:1050B000234891008918890041184A6B9A609168C9
:1050C000D9604C609460DC6A01003031A20015198F
:1050D000AD00491959614119096B01314219116338
:1050E000164A926DD26AD96A9142B4D3134A012109
:1050F0005167B0E7002B01D0FFF7CAFB114B1C68CA
:10510000002C0AD10D4B5C6F002C13D000F07CFFFB
:1051100001240FE0013C002C07D0FFF7EFFE002830
:10512000F8D0064B01225A67F4E7064B00221A60BA
:10513000E8E7002400F080FF200070BDEC0C0020A8
:105140006C0C00206C0D002070B505000C00FFF702
:10515000B1FE144BD86E2B681C1983420BD9A342A5
:1051600002D82C60002410E0A04202D32C6000245E
:105170000BE02C6004E0A34201D8A0420BD22C60CB
:10518000201A0021FFF790FC0124FFF74DFF0028B3
:1051900004D0200070BD2C600024F6E700F034FF3E
:1051A000F7E7C046EC0C002010B5041E09D0FFF74D
:1051B00081FE00212000FFF777FCFFF735FF002874
:1051C00001D100F021FF10BD10B50400FFF772FE01
:1051D00000F026FF044B18680019186000F02CFF3F
:1051E000FFF722FF10BDC0466C0D002010B51B4B11
:1051F0001B6F002B03D0194B01225A6710BD174BB0
:1052000000225A675B6E00E0013B9A00D2189100C1
:10521000134A5218126B002AF6D0114A9900CC1882
:10522000A0001018446B646844633032C9188800C9
:105230000830121894420AD09A00D2189100084AF5
:105240005218526BD168054A91655366D6E760687B
:105250008900034A52185063EEE7C046EC0C002068
:105260006C0C002070B5040000F0DAFE002C10D0A9
:10527000251D280000F08AFFA36A002B03D0200020
:10528000183000F083FF29001D4800F05DFF002367
:1052900003E01C4B9C6DEBE70133022B09DCE218A9
:1052A00064321278012AF7D1E218643200211170B9
:1052B000F2E700F0C1FE134BDB6D002B04D1114B64
:1052C0009B6DA34207D070BD00F0AAFEFFF7E0FA85
:1052D00000F0B2FEF3E70B4BDB6D002B09D1084B5E
:1052E0001A68084B5B6D9A4206D1064B00229A65FC
:1052F000E9E700F089FEE6E7FFF778FFE3E7C0465D
:105300006C0C0020EC0C002010B50C00044B996DC7
:10531000183100F024FF01212000FFF7C5FB10BD6C
:10532000EC0C002070B5030010000D4CA56D802220
:1053300012060A43AA615A68A16DCA61A16D9568F7
:105340000D62A16D18316960A16D18319160A26D77
:1053500093621A6801321A600121FFF7A5FB70BD44
:10536000EC0C002070B50300080011005A680C4CCA
:10537000A56DEA61A56D96682E62A56D18357560FC
:10538000A56D18359560A26D93621A6801321A6096
:10539000002901D001204042FFF786FB70BDC046C6
:1053A000EC0C002030B5C368DB689A6AD869196ACA
:1053B0008160D8694860180018305168814241D036
:1053C00000219962116801391160294A126F002A7F
:1053D0003ED15A699868D9688160986848601C1DF8
:1053E0005168A14231D00021596111680139116021
:1053F000DA6A1F49496E8A4201D91D494A661D4829
:1054000091008918890041184A6B9A609168D960A7
:105410004C609460DC6A01003031A2001519AD00C7
:10542000491959614119096B013142191163DA6A4D
:105430000F4B9B6DDB6A9A4218D90D4B01225A67BC
:10544000012030BD196A5160BAE7D9685160CAE7D6
:10545000084A9169D9618C681C626060886011009B
:1054600014319962516901315161E0E70020E8E7A8
:10547000EC0C00206C0C002030B580231B060B4385
:105480000360C3680269416884688C60816844680D
:105490004C60516881423CD00021016111680139A2
:1054A00011605A699868D9688160986848601C1DC5
:1054B0005168A14230D00021596111680139116051
:1054C000DA6A1749496E8A4201D915494A66154870
:1054D00091008918890041184A6B9A609168D960D7
:1054E0004C609460DC6A01003031A2001519AD00F7
:1054F000491959614119096B013142191163DA6A7D
:10550000074B9B6DDB6A9A4202D9054B01225A6711
:1055100030BD81685160BFE7D9685160CBE7C046B4
:10552000EC0C00206C0C002010B5040000F078FD9D
:10553000034BDA6F2260DB6E636000F07DFD10BD0F
:10554000EC0C0020024BDA6F0260DB6E43607047A8
:10555000EC0C0020F8B504000D0000F061FD124BCA
:10556000D96E6368C81A2A68561C18D00E4EF66F9A
:105570002768B74205D08B4203D800232B60012453
:105580000EE0824203D800232B60012408E05B1A5E
:105590009B182B602000FFF7D5FF002400E00024BB
:1055A00000F04AFD2000F8BDEC0C0020014B012268
:1055B0005A677047EC0C0020042905DC002804D051
:1055C0001031890041184A607047014B986DF7E728
:1055D000EC0C0020042909DC002804D010318900DB
:1055E000411848687047024B986DF7E70020F9E7CB
:1055F000EC0C0020014B986D7047C046EC0C00206D
:10560000064BDB6D002B07D0044B1B6F002B01D02A
:10561000002002E0022000E001207047EC0C002096
:10562000044A936D9869936DD96A926D05235B1A4C
:1056300093617047EC0C002070B504000D0016005B
:1056400000F0EEFC1E4B9A6D230016339B009B5816
:10565000002B07D11A4B9B6D1B19643301221A7062
:10566000002E1ED100F0E8FC00F0DAFC144B9A6D1D
:10567000230016339B009E58002E08D0002D17D013
:105680000F4B9A6D230016339B00002199500C4B51
:10569000986D041964340023237000F0CDFC3000B1
:1056A00070BD01213000FFF7FFF900F0ADFCD9E734
:1056B000034B996D721E230016339B005A50E6E788
:1056C000EC0C0020F8B504000E0015001F0000F0DF
:1056D000A7FC234B9A6D121964321378022B0FD05A
:1056E0001F49886D230016339B001A58B2431A5085
:1056F0008B6D1B19643301221A70069B002B1ED17F
:1057000000F09AFC00F08CFC002F06D0144B9A6D30
:10571000230016339B009B583B60114B9B6D1B195C
:1057200064331B78022B11D000250D4B986D0419A2
:1057300064340023237000F07FFC2800F8BD0121B1
:105740001800FFF7B1F900F05FFCD9E7044B996D41
:10575000230016339B005A58AA435A500125E4E708
:10576000EC0C0020F8B504000D0016001F0000F03E
:1057700057FC069B002B05D02B0016339B001B59B2
:10578000069A1360611964310878C0B202230B7065
:10579000032F24D00CD8012F1AD0022F06D1163592
:1057A000AD002B5901332B5101250BE0012509E0F8
:1057B000042F06D1022817D01635AD002E51012531
:1057C00000E00125012811D000F036FC2800F8BDCA
:1057D0001635AD002A5916432E510125F2E716352C
:1057E000AD002E510125EDE70025EBE76369A268C6
:1057F000E1689160E268A1685160211D5A688A429F
:105800002CD0002262611A68013A1A60E36A154AD4
:10581000526E934201D9134A536613489A00D21824
:1058200092008218536BA3609A68E260516099609D
:10583000E36A020030329900CE18B6009219626114
:105840008219126B013283191A63E26A054B9B6D50
:10585000DB6A9A42B8D900F0D7FBB5E7E2685A6034
:10586000CFE7C046EC0C00206C0C0020F0B583B0F4
:1058700004000D0001921E00089F00F0E7FB002FBE
:1058800004D02B0016339B001B593B606319643313
:105890001F78FFB202221A70032E27D00CD8012ED7
:1058A0001CD0022E06D11635AD002B5901332B51D9
:1058B00001250CE001250AE0042E07D1022F1BD0A0
:1058C0001635AD00019B2B51012500E00125012F6C
:1058D00014D000F0BFFB280003B0F0BD1635AD00BA
:1058E0002A59019E16432E510125F0E71635AD00C9
:1058F000019B2B510125EAE70025E8E72A4B1B6FA6
:10590000002B41D16369A268E1689160E268A168F7
:105910005160261D5A68B24233D0002262611A6873
:10592000013A1A60E36A204A526E934201D91E4A34
:1059300053661E499A00D21892008A18536BA360CE
:105940009A68E26056609E60E66A0A003032B300F0
:105950009F19BF00D2196261CA19126B0132CB19AB
:105960001A63E26A104B9B6DDB6A9A42B1D9099BBC
:10597000002B02D00123099A13600B4B01225A67B6
:10598000A7E7E2685A60C8E7084B9A69E26196683F
:10599000266221001831716091601A001432A262EF
:1059A0005A6901325A61DCE7EC0C00206C0C0020D3
:1059B000F8B506000C00150000F048FB33196433FD
:1059C0001A78022119701634A400A3590133A35187
:1059D000012A02D000F03EFBF8BD2A4B1B6F002BC2
:1059E0003FD17369B268F1689160F268B168516043
:1059F000341D5A68A24231D0002272611A68013AFD
:105A00001A60F36A1F4A526E934201D91D4A5366C7
:105A10001D499A00D21892008A18536BB3609A6895
:105A2000F26054609C60F46A0A003032A3001F19CF
:105A3000BF00D2197261CA19126B0132CB191A63F5
:105A4000F26A104B9B6DDB6A9A42C3D9002D01D0DC
:105A500001232B600B4B01225A67BBE7F2685A60A7
:105A6000CAE7094B9A69F2619468346231001831CF
:105A7000616091601A001432B2625A6901325A614F
:105A8000DEE7C046EC0C00206C0C002070B5040072
:105A90000D0000280BD000F0C3FA631964331B78A3
:105AA000022B07D0002400F0C7FA200070BD044B81
:105AB0009C6DF0E764196434002323700124F2E73D
:105AC000EC0C002070B505000C00160000280BD06F
:105AD00000F0A6FA1634A1004C594B59B3434B5170
